:100000000C9434000C943E000C943E000C943E0082
:100010000C943E000C943E000C943E000C943E0068
:100020000C943E000C943E000C943E000C943E0058
:100030000C943E000C9455000C943E000C943E0031
:100040000C943E000C943E000C943E000C943E0038
:100050000C943E000C943E000C943E000C943E0028
:100060000C943E000C943E0011241FBECFEFD8E04C
:10007000DEBFCDBF0E9440000C946F000C940000C6
:1000800080E284B915B88EEE95E890938500809350
:10009000840081E080936F0078941092800084E067
:1000A0008093810010928200FFCF1F920F920FB6B3
:1000B0000F9211248F939F9381E086BB95B180E2CC
:1000C000892785B98EEE95E890938500809384000A
:1000D0009F918F910F900FBE0F901F901895F894DD
:0200E000FFCF50
:00000001FF
