S00E000054415F335F432E737265634D
S11300000C9434000C943E000C943E000C943E007E
S11300100C943E000C943E000C943E000C943E0064
S11300200C943E000C943E000C943E000C943E0054
S11300300C943E000C943E000C943E000C943E0044
S11300400C943E000C943E000C943E000C943E0034
S11300500C943E000C943E000C943E000C943E0024
S11300600C943E000C943E0011241FBECFEFD8E048
S1130070DEBFCDBF0E944A000C9453000C940000D4
S113008086E886BD14BC85E085BDA89BFECF15BC63
S1130090A89A0895229A15B8C4E00E94400085B138
S10D00A08C2785B9FACFF894FFCF3E
S9030000FC
