S01500004C6F72656E7A5F33322D6269742E7372656365
S11300000C9434000C9451000C9451000C94510045
S11300100C9451000C9451000C9451000C94510018
S11300200C9451000C9451000C9451000C94510008
S11300300C9451000C9451000C9451000C945100F8
S11300400C9451000C9451000C9451000C945100E8
S11300500C9451000C9451000C9451000C945100D8
S11300600C9451000C94510011241FBECFEFD8E022
S1130070DEBFCDBF11E0A0E0B1E0E6EDF4E002C0E8
S113008005900D92A830B107D9F721E0A8E0B1E0BE
S113009001C01D92A830B207E1F70E9456020C94E9
S11300A069020C940000CF93DF93CDB7DEB7A0971D
S11300B00FB6F894DEBF0FBECDBF698F7A8F8B8FDA
S11300C09C8F2D8F3E8F4F8F58A3898D9A8DAB8D2A
S11300D0BC8D072E77E1B695A795979587957A9568
S11300E0D1F7702D8983898D9A8DAB8DBC8DAF77B7
S11300F0BB27A0688A839B83AC83BD838D8D9E8D33
S1130100AF8DB8A1072E77E1B695A79597958795FA
S11301107A95D1F7702D8E838D8D9E8DAF8DB8A17C
S1130120AF77BB27A0688F839887A987BA879981FF
S11301308E81891728F589812E8190E0821B91098F
S1130140092E000CAA0BBB0B8D8B9E8BAF8BB88F2B
S1130150898190E09C878B878F819885A985BA8552
S11301604D895E896F89788D04C0B695A79597955A
S113017087954A95D2F78F839887A987BA872DC028
S11301809E818981891728F58E81298190E0821BBF
S11301909109092E000CAA0BBB0B8D8B9E8BAF8B88
S11301A0B88F8E8190E09C878B878A819B81AC81FC
S11301B0BD814D895E896F89788D04C0B695A795F8
S11301C0979587954A95D2F78A839B83AC83BD83A1
S11301D004C0898190E09C878B87498D5A8D6B8DF3
S11301E07C8D8D8D9E8DAF8DB8A184279527A627F4
S11301F0B727BB230CF43FC0898D9A8DAB8DBC8D82
S11302004D855E856F85788988279927AA27B078D8
S1130210842B952BA62BB72B8D879E87AF87B88B06
S11302204A815B816C817D818F819885A985BA859E
S1130230840F951FA61FB71F898B9A8BAB8BBC8B22
S113024089899A89AB89BC890097A105B14008F4D2
S1130250B0C089899A89AB89BC89B695A7959795C9
S11302608795898B9A8BAB8BBC8B8B859C850196F0
S11302709C878B879EC08D8D9E8DAF8DB8A1BB232F
S113028044F58F819885A985BA8580959095A09528
S1130290B0958F839887A987BA878F819885A98518
S11302A0BA850196A11DB11D8F839887A987BA8746
S11302B04A815B816C817D818F819885A985BA850E
S11302C0840F951FA61FB71F898B9A8BAB8BBC8B92
S11302D027C08A819B81AC81BD8180959095A09532
S11302E0B0958A839B83AC83BD838A819B81AC81D7
S11302F0BD810196A11DB11D8A839B83AC83BD83FF
S11303004A815B816C817D818F819885A985BA85BD
S1130310840F951FA61FB71F898B9A8BAB8BBC8B41
S113032089899A89AB89BC890097A105B14000F1FC
S113033089899A89AB89BC8980959095A095B09557
S1130340898B9A8BAB8BBC8B89899A89AB89BC8945
S11303500196A11DB11D898B9A8BAB8BBC8B8D85AE
S11303609E85AF85B889B0688D879E87AF87B88B27
S113037089899A89AB89BC890097A048B105C8F4DA
S113038089899A89AB89BC89880F991FAA1FBB1FC9
S1130390898B9A8BAB8BBC8B8B859C8501979C87B7
S11303A08B8789899A89AB89BC890097A048B10554
S11303B038F38B859C858F3F91058CF08D859E85C8
S11303C0AF85B8898F6F9F6FAF6FBF678D879E872B
S11303D0AF87B88B6D857E858F8598895EC08B8548
S11303E09C8599238CF48D859E85AF85B889882753
S11303F09927AA27B0788D879E87AF87B88B6D859C
S11304007E858F85988949C089899A89AB89BC89F9
S1130410AF77BB27898B9A8BAB8BBC8B8B859C85E9
S1130420092E000CAA0BBB0B8D8B9E8BAF8BB88F48
S11304308D899E89AF89B88D072E77E1880F991F22
S1130440AA1FBB1F7A95D1F7702D8D8B9E8BAF8B16
S1130450B88F4D895E896F89788D8D859E85AF852E
S1130460B889842B952BA62BB72B8D879E87AF87B6
S1130470B88B49895A896B897C898D859E85AF851E
S1130480B889842B952BA62BB72B8D879E87AF8796
S1130490B88B6D857E858F859889A0960FB6F89464
S11304A0DEBF0FBECDBFDF91CF910895209104012F
S11304B030910501409106015091070160910001BE
S11304C07091010180910201909103010E945300F7
S10904D0FFCFF894FFCFFA
S10B04D6000036C2000082415F
S9030000FC
