:100000000C9434000C9451000C9451000C94510049
:100010000C9451000C9451000C9451000C9451001C
:100020000C9451000C9451000C9451000C9451000C
:100030000C9451000C9451000C9451000C945100FC
:100040000C9451000C9451000C9451000C945100EC
:100050000C9451000C9451000C9451000C945100DC
:100060000C9451000C94510011241FBECFEFD8E026
:10007000DEBFCDBF11E0A0E0B1E0EEE3F1E002C0F1
:1000800005900D92A030B107D9F721E0A0E0B1E0D2
:1000900001C01D92A030B207E1F70E948D000C94C0
:1000A0009D000C9400001092B90088E48093B80081
:1000B00084E08093BC0008958093BB0084E8809323
:1000C000BC00ECEBF0E080818823ECF7089584EA33
:1000D0008093BC00ECEBF0E080818823ECF708957E
:1000E000CF93DF93EC010E94670080EC0E945C00DC
:1000F00080E40E945C00CE01929582958F708927E2
:100100009F7089270E945C008C2F0E945C0084E90C
:100110008093BC00DF91CF9108950E94530080E04E
:1001200098E00E9470002FEF8BE792E92150804009
:0E0130009040E1F700C00000F2CFF894FFCF3E
:00000001FF
