:100000000C9434000C9451000C9451000C94510049
:100010000C9451000C9451000C9451000C9451001C
:100020000C9451000C9451000C9451000C9451000C
:100030000C9451000C9451000C9451000C945100FC
:100040000C9451000C9451000C9451000C945100EC
:100050000C9451000C9451000C9451000C945100DC
:100060000C9451000C94510011241FBECFEFD8E026
:10007000DEBFCDBF11E0A0E0B1E0E0E4F7E002C0F8
:1000800005900D92A830B107D9F721E0A8E0B1E0C2
:1000900001C01D92A830B207E1F70E943F030C9403
:1000A0009E030C940000AF92BF92CF92DF92EF922A
:1000B000FF920F931F93CF93DF93CDB7DEB7E197F6
:1000C0000FB6F894DEBF0FBECDBF6AA77BA78CA783
:1000D0009DA72EA73FA748AB59AB8AA59BA5ACA56A
:1000E000BDA5072E77E1B695A795979587957A9543
:1000F000D1F7702D89838AA59BA5ACA5BDA5AF7747
:10010000BB27A0688A839B83AC83BD838EA59FA5F4
:10011000A8A9B9A9072E77E1B695A79597958795D0
:100120007A95D1F7702D8E838EA59FA5A8A9B9A920
:10013000AF77BB27A0688F839887A987BA878AA5DE
:100140009BA5ACA5BDA54EA55FA568A979A90D8500
:100150001E852F85388984279527A627B7278827C6
:100160009927AA27B078802B912BA22BB32B8D87B0
:100170009E87AF87B88B29818E8190E0820F911D79
:100180008F5791099C878B878B859C858F3F910525
:1001900081F07CF08D859E85AF85B889BC01CD014D
:1001A0006F6F7F6F8F6F9F676D877E878F87988B4D
:1001B00055C20A811B812C813D810A8B1B8B2C8BA4
:1001C0003D8B1E8A1F8A188E198E2A893B894C897D
:1001D0005D896E897F89888D998D0AE10E9452031D
:1001E0002A8B3B8B4C8B5D8B6E8B7F8B888F998F93
:1001F0008A819B81AC81BD8180959095A095B095B9
:100200008A839B83AC83BD838A819B81AC81BD81C2
:100210000196A11DB11D8A839B83AC83BD830A8196
:100220001B812C813D810A8F1B8F2C8F3D8F1E8E51
:100230001F8E18A219A22A8D3B8D4C8D5D8D6E8D5F
:100240007F8D88A199A10AE10E9452032A8F3B8FDA
:100250004C8F5D8F6E8F7F8F88A399A36A8D5B8D86
:100260004C8D3D8D2E8D9F8D88A179A187706A8FD1
:100270005B8F4C8F3D8F2E8F9F8F88A319A20F818C
:10028000188529853A85000F111F221F331F0AA3E5
:100290001BA32CA33DA31EA21FA218A619A6198A50
:1002A0008989893108F0BFC02AA18BA18CA18DA1B9
:1002B0008EA18FA188A589A5237030E040E050E091
:1002C00060E070E080E090E0A1E00E949203D9F449
:1002D0002A893B894C895D896E897F89888D998DB2
:1002E000AAA0BBA0CCA0DDA0EEA0FFA008A519A5E8
:1002F0000E9489032AA33BA34CA35DA36EA37FA303
:1003000088A799A72EC02AA18BA18CA18DA18EA10F
:100310008FA188A589A5237030E040E050E060E01F
:1003200070E080E090E0A2E00E949203D1F42A8D78
:100330003B8D4C8D5D8D6E8D7F8D88A199A1AAA07E
:10034000BBA0CCA0DDA0EEA0FFA008A519A50E942F
:1003500089032AA33BA34CA35DA36EA37FA388A715
:1003600099A76AA15BA14CA13DA12EA19FA188A53F
:1003700079A587706AA35BA34CA33DA32EA39FA37B
:1003800088A719A62AA13BA14CA15DA16EA17FA1BE
:1003900088A599A52F3F3F4F4F4F5F4F6F4F7F4F1E
:1003A0008340910531F128F12AA13BA14CA15DA127
:1003B0006EA17FA188A599A501E00E946D032AA3E3
:1003C0003BA34CA35DA36EA37FA388A799A77AA1A3
:1003D0006BA15CA14DA13EA12FA188A599A5846028
:1003E0007AA36BA35CA34DA33EA32FA388A799A7D1
:1003F00013C02AA13BA14CA15DA16EA17FA188A53C
:1004000099A501E00E946D032AA33BA34CA35DA321
:100410006EA37FA388A799A789898F5F898B898914
:10042000893108F441CF2AA13BA14CA15DA16EA165
:100430007FA188A599A501E00E946D032AA33BA393
:100440004CA35DA36EA37FA388A799A72AA13BA174
:100450004CA15DA16EA17FA188A599A521153105AB
:1004600041055105610570488105910559F150F12B
:100470002AA13BA14CA15DA16EA17FA188A599A550
:1004800001E00E946D032AA33BA34CA35DA36EA3CE
:100490007FA388A799A78B859C8501969C878B87CE
:1004A0002AA13BA14CA15DA16EA17FA188A599A520
:1004B00021153105410551056105704881059105FA
:1004C00009F0B0F62AA13BA14CA15DA16EA17FA1CC
:1004D00088A599A52E3F3F4F4F4F5F4F6F4F7F43EA
:1004E0008105910509F050F52AA13BA14CA15DA120
:1004F0006EA17FA188A599A501E00E9452032AA3BD
:100500003BA34CA35DA36EA37FA388A799A78B856C
:100510009C8501979C878B872AA13BA14CA15DA15B
:100520006EA17FA188A599A52E3F3F4F4F4F5F4FEA
:100530006F4F7F4381059105B9F2B0F22AA13BA12B
:100540004CA15DA16EA17FA188A599A52F3F3F4F2A
:100550004F4F5105610571058105910531F128F174
:100560002AA13BA14CA15DA16EA17FA188A599A55F
:1005700001E00E946D032AA33BA34CA35DA36EA3DD
:100580007FA388A799A72AA13BA14CA15DA16EA139
:100590007FA188A599A52F3F3F4F4F4F510561057A
:1005A00071058105910509F0D8F68B859C85092E8A
:1005B000000CAA0BBB0B8A839B83AC83BD838A810F
:1005C0009B81AC81BD81072E77E1880F991FAA1FFF
:1005D000BB1F7A95D1F7702D8A839B83AC83BD8333
:1005E0004A815B816C817D818D859E85AF85B889CF
:1005F000842B952BA62BB72B8D879E87AF87B88B27
:100600005AA14BA13CA12DA18EA18FA188A589A59E
:10061000852F942FA32FB22F8A839B83AC83BD8316
:100620008A819B81AC81BD81AF77BB278A839B8305
:10063000AC83BD834A815B816C817D818D859E8584
:10064000AF85B889842B952BA62BB72B8D879E87DA
:10065000AF87B88B6D857E858F859889E1960FB6BB
:10066000F894DEBF0FBECDBFDF91CF911F910F91E8
:10067000FF90EF90DF90CF90BF90AF9008952091C2
:1006800000013091010140910201509103016091FC
:1006900004017091050180910601909107010E946B
:1006A0005300FFCF0F93083090F0982F872F762FAD
:1006B000652F542F432F322F22270850F4CF220FBB
:1006C000331F441F551F661F771F881F991F0A95E8
:1006D000B2F70F91089597FB10F8169400080F9346
:1006E000083098F00850232F342F452F562F672FAE
:1006F000782F892F902DF4CF05949795879577952E
:10070000679557954795379527950A95AAF70F91BD
:1007100008952A0D3B1D4C1D5D1D6E1D7F1D801F04
:10072000911F08950024A7FD00942A173005400565
:10073000500560057005800590050895F894FFCF79
:08074000000036420000824176
:00000001FF
