:100000000C9434000C943E000C943E000C943E0082
:100010000C943E000C943E000C943E000C943E0068
:100020000C943E000C943E000C943E000C943E0058
:100030000C943E000C943E000C943E000C943E0048
:100040000C944D000C943E000C943E000C943E0029
:100050000C943E000C943E000C943E000C943E0028
:100060000C943E000C943E0011241FBECFEFD8E04C
:10007000DEBFCDBF0E9440000C9463000C940000D2
:1000800084E084B915B886E886BD81E080936E006F
:10009000789414BC85E085BDFFCF1F920F920FB6F8
:1000A0000F9211248F939F9381E085BB95B184E0DB
:1000B000892785B986E886BD9F918F910F900FBEE5
:0A00C0000F901F901895F894FFCFE1
:00000001FF
