S0100000595F4C6F72656E7A2E73726563E2
S11300000C9434000C9451000C9451000C94510045
S11300100C9451000C9451000C9451000C94510018
S11300200C9451000C9451000C9451000C94510008
S11300300C9451000C9451000C9451000C945100F8
S11300400C9451000C9451000C9451000C945100E8
S11300500C9451000C9451000C9451000C945100D8
S11300600C9451000C94510011241FBECFEFD8E022
S1130070DEBFCDBF11E0A0E0B1E0ECE4FCE002C0E3
S113008005900D92A031B107D9F721E0A0E1B1E0CC
S113009001C01D92AC31B207E1F70E9452040C94E6
S11300A024060C9400004F925F926F927F928F927D
S11300B09F92AF92BF92CF92DF92EF92FF920F93F3
S11300C01F93CF93DF93CDB7DEB72C970FB6F89479
S11300D0DEBF0FBECDBF49015A01E02F6B017C0189
S11300E00B2EB7E1F694E794D794C794BA95D1F759
S11300F0B02DC986DA86EB86FC8659856B017C01B6
S1130100E894E7F8FF2426013701689467F885012D
S113011074010D2ED7E116950795F794E794DA95B7
S1130120D1F7D02DED82FE820F8318874D817501A2
S11301306401E894E7F8FF249701860120680983A5
S11301401A832B833C83EE2311F010E8B11A451770
S1130150B8F42985422F50E09A01ED812E1B310914
S1130160C980DA80EB80FC8004C0F694E794D794CD
S1130170C7942A95D2F7C982DA82EB82FC8214C032
S1130180541778F4DD804D2D50E09A01E9842E193E
S1130190310904C076946794579447942A95D2F70A
S11301A003C0F9844F2D50E09501840106271727D9
S11301B0282739273323E4F06B017C01CC24DD2488
S11301C0EE2400E8F02289819A81AB81BC81840D00
S11301D0951DA61DB71D0097A10511E0B10708F4F0
S11301E045C0B695A795979587954F5F5F4F3EC0DD
S11301F0BB205CF4D301C201C980DA80EB80FC80AF
S11302008C199D09AE09BF0908C089819A81AB8107
S1130210BC8184199509A609B7090097A10501E0D5
S1130220B00768F0B095A095909581959F4FAF4F1A
S1130230BF4FC12CD12C76016894F7F803C0C12CB0
S1130240D12C76010097A105B10519F1009710E8AA
S1130250A107B10558F4880F991FAA1FBB1F41506D
S11302605109009720E8A207B105A8F34F3F5105B3
S11302703CF0C701B6016F6F7F6F8F6F9F6726C019
S113028055234CF4C701B601662777278827907851
S11302901DC040E050E0052E000C660B770BAF77D5
S11302A0BB278C299D29AE29BF296A017B010B2E0E
S11302B0B7E1CC0CDD1CEE1CFF1CBA95D1F7B02DB8
S11302C0BC01CD016C297D298E299F292C960FB65E
S11302D0F894DEBF0FBECDBFDF91CF911F910F9178
S11302E0FF90EF90DF90CF90BF90AF909F908F9052
S11302F07F906F905F904F9008952F923F924F920E
S11303005F926F927F928F929F92AF92BF92CF92A1
S1130310DF92EF92FF920F931F93CF93DF93CDB7AA
S1130320DEB763970FB6F894DEBF0FBECDBF4901A9
S11303305A012B013C014226532664267526442487
S11303405524662410E871228B019C010F2EF7E1DD
S11303503695279517950795FA95D1F7F02D7501E0
S113036064010B2EB7E1F694E794D794C794BA9539
S1130370D1F7B02D4C2D50E0400F511D4F5751096E
S11303805B8B4A8B4F3F510541F03CF044244A9427
S1130390542C652C5FE7752AAFC1DC01CB01AF7724
S11303A0BB276C017D016894E7F8A701960160E022
S11303B070E080E090E00AE10E94CC05F22FB32FB8
S11303C0498B5987362E272E182FA92FF094E094A5
S11303D0D094C094C11CD11CE11CF11CA70196014E
S11303E060E070E080E090E00E94CC052A873B87C3
S11303F04C875D876E877F878770888BB501A401E2
S11304006F7777276068440F551F661F771F4A016F
S11304105B01C12CD12C760149839A82AB82BC82C8
S1130420CD82DE82EF82F886E9E1812E9A2E19814F
S11304301370212F30E040E050E060E070E080E095
S113044090E0A1E00E941806D1F42F2F3B2F498998
S11304505985632D722D882D992DA980BA80CB8062
S1130460DC80ED80FE800F8118850E9403062983BD
S11304703A834B835C836D837E838F8324C0212FD7
S113048030E040E050E060E070E080E090E0A2E026
S11304900E941806C1F42A853B854C855D856E85CE
S11304A07F858889A980BA80CB80DC80ED80FE803E
S11304B00F8118850E94030629833A834B835C834A
S11304C06D837E838F83AF81A77029813A814B81AD
S11304D05C816D817E818A2F90E02F3F1FEF310771
S11304E0410751076107710713E08107910571F016
S11304F068F001E00E94E70529833A834B835C831B
S11305006D837E8384608F83988713C029813A81A9
S11305104B815C816D817E818A2F90E001E00E9495
S1130520E70529833A834B835C836D837E838F83C2
S11305309887E15009F07BCF8A889B8829813A818A
S11305404B815C816D817E818F81988501E00E9461
S1130550E705122FB32FF42FE52FC62ED72EE82E42
S1130560F92E2F3FAFEF3A074A075A076A07AFE75A
S11305707A078105910541F138F15401032F212FA8
S1130580302F4F2F5E2F6C2D7D2D8E2D9F2D01E052
S11305900E94E705122F032FF42FE52FC62ED72E26
S11305A0E82EF92EBFEFAB1ABB0A2F3FAFEF3A0785
S11305B04A075A076A07AFE77A078105910509F0E8
S11305C0F0F6BB8AAA8AB32F212F3B2F4F2F5E2F21
S11305D06C2D7D2D8E2D9F2DAFEF0E940C062D3F8F
S11305E03F4F4F4F5F4F6F4F7F438105910509F098
S11305F048F5AA88BB880B2F212F302F4F2F5E2F51
S11306006C2D7D2D8E2D9F2D01E00E94CC05122F87
S1130610032FF42FE52FC62ED72EE82EF92EB1E0A6
S1130620AB1AB108AFEF0E940C062D3F3F4F4F4F5E
S11306305F4F6F4F7F4381059105F1F2E8F2BB8A6A
S1130640AA8AB02F212F3B2F4F2F5E2F6C2D7D2D8B
S11306508E2D9F2D2F3F3F4F4F4F51056105710543
S113066081059105F1F0E8F0212F3B2F4F2F5E2FEC
S11306706C2D7D2D8E2D9F2D01E00E94E705122FFC
S1130680B32FF42FE52FC62ED72EE82EF92E2F3FA9
S11306903F4F4F4F5105610571058105910509F0E3
S11306A018F72A893B892F3F31053CF044244A94AA
S11306B0542C652C3FE7732A1FC08A889B88992095
S11306C0DCF0A401990C660B770B032E37E1440F81
S11306D0551F661F771F3A95D1F7302D442A552AA6
S11306E0662A772A412F5B2F6F2F7E2F6F7777270C
S11306F0442A552A662A772AC301B20163960FB6A3
S1130700F894DEBF0FBECDBFDF91CF911F910F9143
S1130710FF90EF90DF90CF90BF90AF909F908F901D
S11307207F906F905F904F903F902F9008954F92DD
S11307305F926F927F928F929F92AF92BF92CF926D
S1130740DF92EF92FF920F932B013C01DC01CB016E
S1130750072E77E1B695A795979587957A95D1F762
S1130760702DE1E8E80F53014201E894A7F8BB2497
S11307706894A7F8C12CD12C7601EE2379F11E16CA
S1130780ACF4E150282D392D4A2D5B2D6C2D7D2D97
S11307908E2D9F2D01E00E94CC05822E932EA42E37
S11307A0B52EC62ED72EE82EF92E16C0EE23A4F4AD
S11307B0EF5F282D392D4A2D5B2D6C2D7D2D8E2D2F
S11307C09F2D01E00E94E705822E932EA42EB52EC4
S11307D0C62ED72EE82EF92EE111D1CF282D392D92
S11307E04A2D5B2D6C2D7D2D8E2D9F2D05E00E94B5
S11307F0CC0507E10E94E705822E932E8FE0982214
S113080077202CF48FEF97E08819990903C0C4016D
S11308108150984F0F91FF90EF90DF90CF90BF9051
S1130820AF909F908F907F906F905F904F900895BE
S11308301092B90088E48093B80084E08093BC00EF
S113084008958093BB0084E88093BC00ECEBF0E057
S113085080818823ECF7089584EA8093BC00ECEB54
S1130860F0E080818823ECF70895CF93DF93EC01C7
S11308700E942C0480EC0E94210480E40E94210444
S1130880CE01929582958F7089279F7089270E9447
S113089021048C2F0E94210484E98093BC00DF9101
S11308A0CF91089582E084B90E9418042FEF83E267
S11308B094EF215080409040E1F700C0000012E026
S11308C0C8EED3E0209108013091090140910A015A
S11308D050910B0160910401709105018091060112
S11308E09091070101E00E945300609318017093F6
S11308F0190180931A0190931B01209118013091E2
S1130900190140911A0150911B0160E070E080E2EE
S113091091E40E947D016093180170931901809302
S11309201A0190931B0120910C0130910D0140910B
S11309300E0150910F01609118017091190180917D
S11309401A0190911B010E947D016093180170931C
S1130950190180931A0190931B0120910001309199
S11309600101409102015091030160E070E080EECA
S113097091E40E94530060931401709315018093D5
S113098016019093170120910801309109014091BB
S11309900A0150910B01609114017091150180912D
S11309A01601909117010E947D01609314017093C8
S11309B01501809316019093170120910401309141
S11309C00501409106015091070160911401709155
S11309D0150180911601909117010E9453006093B4
S11309E014017093150180931601909317012091BF
S11309F00C0130910D0140910E0150910F01609155
S1130A0014017091150180911601909117010E94B3
S1130A107D016093140170931501809316019093E6
S1130A201701209104013091050140910601509174
S1130A300701609108017091090180910A01909168
S1130A400B010E947D016B017C012091000130911A
S1130A50010140910201509103016BEA7AEA8AE2B2
S1130A6090E40E947D0160931001709311018093C2
S1130A7012019093130120911001309111014091C2
S1130A80120150911301C701B6010E9453006093F3
S1130A90100170931101809312019093130120911E
S1130AA00C0130910D0140910E0150910F016091A4
S1130AB010017091110180911201909113010E9413
S1130AC07D01609310017093110180931201909342
S1130AD01301209118013091190140911A0150918C
S1130AE01B01609108017091090180910A019091A4
S1130AF00B0100E00E945300609308017093090108
S1130B0080930A0190930B012091140130911501F7
S1130B1040911601509117016091040170910501F3
S1130B2080910601909107010E9453006093040193
S1130B3070930501809306019093070120911001A1
S1130B403091110140911201509113016091000103
S1130B507091010180910201909103010E94530060
S1130B60609300017093010180930201909303014B
S1130B706091040170910501809106019091070133
S1130B800E94970315B91A9BFECF15B80E9435042D
S1130B90219709F097CE94CE0F93083090F0982FB8
S1130BA0872F762F652F542F432F322F222708505B
S1130BB0F4CF220F331F441F551F661F771F881F52
S1130BC0991F0A95B2F70F91089597FB10F81694A0
S1130BD000080F93083098F00850232F342F452F26
S1130BE0562F672F782F892F902DF4CF0594979542
S1130BF087957795679557954795379527950A95DE
S1130C00AAF70F9108952A0D3B1D4C1D5D1D6E1D05
S1130C107F1D801F911F08950024A7FD00942A0FB3
S1130C20301D401D501D601D701D801D901D0895B8
S1130C300024A7FD00942A173005400550056005DF
S10F0C407005800590050895F894FFCF1E
S1130C4C0000803F0000803F0000803F0AD7233C17
S9030000FC
