:100000000C9434000C9446000C9446000C9446006A
:100010000C9446000C9446000C9446000C94460048
:100020000C9446000C9446000C9446000C94460038
:100030000C9446000C949F000C9446000C944600CF
:100040000C9446000C9446000C9446000C94460018
:100050000C9446000C9446000C9446000C94460008
:100060000C9446000C94460011241FBECFEFD8E03C
:10007000DEBFCDBF21E0A0E0B1E001C01D92A13004
:10008000B207E1F70E9448000C9422010C94000092
:10009000219AECE7F0E01082808180628083808189
:1000A00080648083EAE7F0E08081876080838081DC
:1000B0008062808310927B00808180688083808151
:1000C000806480831092C50080E18093C400E0ECDE
:1000D000F0E0808182608083E1ECF0E080818860E4
:1000E0008083E2ECF0E080818660808387EF92EC91
:1000F0009093850080938400EFE6F0E0808181603A
:10010000808310928000E1E8F0E080818560808348
:10011000109282007894EAE7F0E0A9E7B0E08081ED
:1001200084FFFDCF8C91880F80930001F8CFE0EC25
:10013000F0E0908195FFFDCF8093C60008951F9257
:100140000F920FB60F9211242F933F934F935F930B
:100150006F937F938F939F93AF93BF93EF93FF938F
:10016000CF93DF9300D01F92CDB7DEB781E086BB7F
:1001700087EF92EC909385008093840095B182E0A4
:10018000892785B9809100014AE0BE016F5F7F4FEA
:1001900090E00E94ED0089810E9497008A810E9470
:1001A00097008B810E9497008AE00E9497000F9031
:1001B0000F900F90DF91CF91FF91EF91BF91AF9191
:1001C0009F918F917F916F915F914F913F912F916F
:1001D0000F900FBE0F901F901895BB274A3031F437
:1001E000992322F4BDE2909581959F4F0C94F900DC
:1001F000BB27FB015527AA27880F991FAA1FA41701
:1002000010F0A41B83955051B9F7A05DAA3308F0F4
:10021000A95DA193009779F7B111B1931192CB0128
:100220000C941201DC01FC01672F71917723E1F737
:10023000329704C07C916D9370836291AE17BF07B3
:08024000C8F30895F894FFCF04
:00000001FF
