:100000000C9434000C9451000C9451000C94510049
:100010000C9451000C9451000C9451000C9451001C
:100020000C9451000C9451000C9451000C9451000C
:100030000C9451000C945D000C9451000C945100F0
:100040000C9451000C9451000C9451000C945100EC
:100050000C9451000C9451000C9451000C945100DC
:100060000C9451000C94510011241FBECFEFD8E026
:10007000DEBFCDBF11E0A0E0B1E0E6E4F9E002C0F0
:1000800005900D92AC30B107D9F721E0ACE0B1E0BA
:1000900001C01D92A731B207E1F70E94E4000C9461
:1000A000A1040C940000DC01E0ECF0E0908195FFED
:1000B000FDCF8C918093C60008951F920F920FB6CA
:1000C0000F9211242F933F934F935F936F937F93DE
:1000D0008F939F93AF93BF93EF93FF93CF93DF9350
:1000E0001F92CDB7DEB78AE0898310920C0181E0C0
:1000F00086BB87EF92EC909385008093840095B146
:1001000082E0892785B9809112014AE06EE071E0B2
:1001100090E00E946C04E0910C01F0E0E25FFE4F81
:1001200080818823A1F080910C0190E0825F9E4F36
:100130000E94530080910C018F5F80930C01E0912D
:100140000C01F0E0E25FFE4F80818111ECCFCE0127
:1001500001960E94530081E080930D010F90DF9182
:10016000CF91FF91EF91BF91AF919F918F917F912F
:100170006F915F914F913F912F910F900FBE0F9014
:100180001F901895CF93DF930E947B01EC0185E2CD
:1001900090E09983888322E02A839C838B8321E0EB
:1001A0002D839F838E8325E028879A87898723E084
:1001B0002B879D878C8784E08E87CE010E94DA0191
:1001C000CE01DF91CF910895CF93DF93CDB7DEB706
:1001D000A8970FB6F894DEBF0FBECDBF85E0E6E06E
:1001E000F1E0DE01949601900D928A95E1F7219A53
:1001F000ECE7F0E0108280818062808380818064FF
:100200008083EAE7F0E0808187608083808180627C
:10021000808310927B0080818068808380818064ED
:1002200080831092C50080E18093C400E0ECF0E090
:10023000808182608083E1ECF0E08081886080834F
:10024000E2ECF0E080818660808387EF92EC90930F
:10025000850080938400EFE6F0E0808181608083F8
:1002600010928000E1E8F0E0808185608083109248
:10027000820078940E94C2005C010AE710E00F2E11
:10028000F9E7EF2EF12CF02D6E0183E0C80ED11CA2
:10029000F801808184FFFCCFF7018081880F809373
:1002A000120180910D01882399F310920D01409164
:1002B0000C0150E06EE071E0C6010E946304F6019B
:1002C00001900020E9F7EC19EBA3AE014F5F5F4FFF
:1002D000BE016C5D7F4FC5010E94D202D9CFFC01E7
:1002E000A62FB72F9C012B5F3F4F91919D93E21753
:1002F000F307D9F7089580E190E00E94420320E1DE
:10030000FC0111922A95E9F70895CF93DF93EC0150
:10031000DA01E881F981508181E090E00A8002C031
:10032000880F991F0A94E2F78095852380836EBD1C
:100330000DB407FEFDCF8EB58F872115310579F0FD
:10034000FD012A0F3B1FDF0190819EBD0DB407FE0A
:10035000FDCF9EB59C933196E217F307A1F7E88194
:10036000F981208181E090E00A8002C0880F991F06
:100370000A94E2F7822B80838F85DF91CF910895D5
:1003800060620E94850108950E9485010895CF93BF
:10039000DF931F92CDB7DEB720E7298321E030E05D
:1003A000AE014F5F5F4F67E00E94C0010F90DF9189
:1003B000CF910895FF920F931F93CF93DF931F92D6
:1003C000CDB7DEB78C01DC01ED91FC911197429124
:1003D00081E090E09C0112960C90129702C0220FCF
:1003E000331F0A94E2F7242B20831396ED91FC919E
:1003F000149742919C0115960C90159702C0220FFC
:10040000331F0A94E2F7242B2083ED91FC9111977E
:1004100040819C0112960C90129702C0220F331F4C
:100420000A94E2F7242B20831396ED91FC91149704
:100430003081AC0115960C90159702C0440F551FE2
:100440000A94E2F7242F2095232320832CB52061E2
:100450002CBD2CB520642CBD1696ED91FC91179700
:1004600042919C0118960C90189702C0220F331FDE
:100470000A94E2F7242B20831996ED91FC911A97A8
:1004800042919C011B960C901B9702C0220F331FB8
:100490000A94E2F7242B20831C96ED91FC911D9782
:1004A00022911E960C9002C0880F991F0A94E2F7C1
:1004B0008095822380838CB5877F8CBD8CB58B7FA4
:1004C0008CBD8CB58E7F8CBD8CB58D7F8CBD8DB574
:1004D00081608DBD8CB58F7D8CBD20E030E040E02B
:1004E00050E062EEC8010E94850120E030E040E06B
:1004F00050E061EEC8010E948501C8010E94C70159
:100500008FE0898321E030E0AE014F5F5F4F60E014
:10051000C8010E94C0010F2EFFE3FF2EF02DF982CB
:1005200021E030E0AE014F5F5F4F61E0C8010E9403
:10053000C001F98221E030E0AE014F5F5F4F6CE116
:10054000C8010E94C00184E0898321E030E0AE014F
:100550004F5F5F4F6DE1C8010E94C001198221E029
:1005600030E0AE014F5F5F4F62E0C8010E94C00102
:100570000F90DF91CF911F910F91FF900895CF932E
:10058000DF931F92CDB7DEB720E3298321E030E06F
:10059000AE014F5F5F4F67E00E94C0010F90DF9197
:1005A000CF910895CF92DF92EF92FF920F931F9316
:1005B000CF93DF9300D000D000D0CDB7DEB78C0151
:1005C0006B017A010E94BF02BE016F5F7F4FC601BF
:1005D0000E946F0125E030E0AE014F5F5F4F60E1A8
:1005E000C8010E94C001BE016F5F7F4FC6010E941B
:1005F0006F0125E030E0AE014F5F5F4F6AE0C80158
:100600000E94C001D70192962C9130E0A7014E5F65
:100610005F4F60EAC8010E94850121E030E0AE0131
:100620004A5F5F4F60E0C8010E94C4018E818E7FE7
:100630008E8321E030E0AE014A5F5F4F60E0C80189
:100640000E94C001D8011396ED91FC91149720816E
:1006500081E090E015960C9002C0880F991F0A94D3
:10066000E2F7822B808326960FB6F894DEBF0FBE8A
:10067000CDBFDF91CF911F910F91FF90EF90DF9051
:10068000CF9008950F931F93CF93DF9382309105FE
:1006900010F482E090E0E0911501F091160120E065
:1006A00030E0A0E0B0E0309719F140815181028143
:1006B000138148175907C8F08417950769F41097F4
:1006C00031F012960C93129713961C9327C0009347
:1006D00015011093160122C02115310519F042179A
:1006E000530718F49A01BD01EF01DF01F801DBCFD8
:1006F00021153105F9F0281B390B2430310580F420
:100700008A819B816115710521F0FB0193838283AE
:1007100004C09093160180931501FE01329644C0E7
:10072000FE01E20FF31F8193919322503109398327
:1007300028833AC02091130130911401232B41F4F6
:100740002091020130910301309314012093130191
:1007500020910001309101012115310541F42DB79F
:100760003EB74091040150910501241B350BE091E7
:100770001301F0911401E217F307A0F42E1B3F0BB5
:100780002817390778F0AC014E5F5F4F2417350703
:1007900048F04E0F5F1F5093140140931301819353
:1007A000919302C0E0E0F0E0CF01DF91CF911F9183
:1007B0000F910895CF93DF93009709F481C0FC0156
:1007C000329713821282A0911501B09116011097F1
:1007D00081F420813181820F931F20911301309188
:1007E00014012817390751F5F0931401E093130110
:1007F00067C0ED0120E030E0CE17DF0740F44A810A
:100800005B819E0141155105F1F0EA01F5CFD383DB
:10081000C28340815181840F951FC817D90759F4AD
:1008200088819981840F951F0296918380838A81A4
:100830009B81938382832115310529F4F09316015E
:10084000E09315013DC0E901FB83EA834991599189
:10085000C40FD51FEC17FD0761F480819181840FCF
:10086000951F0296E90199838883828193819B83F6
:100870008A83E0E0F0E012968D919C9113970097A7
:1008800019F0FD01DC01F7CF8D919C9111979D012D
:100890002E5F3F4F820F931F20911301309114015F
:1008A0002817390769F4309729F41092160110922D
:1008B000150102C013821282B0931401A093130198
:1008C000DF91CF910895FB01DC0102C001900D92F0
:1008D00041505040D8F70895BB274A3031F499234E
:1008E00022F4BDE2909581959F4F0C947804BB272C
:1008F000FB015527AA27880F991FAA1FA41710F0DC
:10090000A41B83955051B9F7A05DAA3308F0A95DE7
:10091000A193009779F7B111B1931192CB010C9487
:100920009104DC01FC01672F71917723E1F7329785
:1009300004C07C916D9370836291AE17BF07C8F3BA
:060940000895F894FFCFBA
:0C09460000001701200001010101010068
:00000001FF
