:100000000C9434000C943E000C943E000C943E0082
:100010000C943E000C943E000C943E000C943E0068
:100020000C943E000C943E000C943E000C943E0058
:100030000C943E000C943E000C943E000C943E0048
:100040000C943E000C943E000C943E000C943E0038
:100050000C943E000C943E000C943E000C943E0028
:100060000C943E000C943E0011241FBECFEFD8E04C
:10007000DEBFCDBF0E94F9010C9406020C94000073
:100080001092B90088E48093B80084E08093BC00AB
:100090000895CF93DF93CDB7DEB769970FB6F89485
:1000A000DEBF0FBECDBF9F8B8E8B798F688F19827D
:1000B0001A821C821B821E821D8218861F821A864B
:1000C00019861C861B868E899F89892F8695898330
:1000D00089818F7389838E899F8991709C838B839B
:1000E0008B819C8192609C838B83888D998D892FD5
:1000F00086958A838A818F738A83888D998D917082
:100100009E838D838D819E8192609E838D832981C4
:100110008A8190E0820F911D9A8789878E899F89B5
:10012000288D398D4B855C85822793278827907889
:10013000842B952B9C878B878B819C8192958295B4
:100140008F7089279F7089278D878B819C81982F3D
:1001500088279295907F998B888B8B819C81809545
:1001600090959C838B838B819C8101969C838B8350
:100170008B819C8197709C838B838B819C819295D2
:1001800082958F7089279F7089278E878B819C81AC
:10019000982F88279295907F9B8B8A8B8D819E814B
:1001A000880F991F9D8B8C8B18861F828F81988555
:1001B0000B9708F071C08C899D89837099270197EE
:1001C000E9F4288939898C899D89820F931F9D8B39
:1001D0008C8B2C893D89888999892817390730F4B7
:1001E0009D858F85890F8F5F8F8704C09D858F8543
:1001F000890F8F878F858F778F871FC08C899D8907
:10020000837099270297C9F42A893B898C899D8933
:10021000820F931F9D8B8C8B2C893D898A899B89AA
:100220002817390730F49F858E85890F8F5F8F8758
:1002300004C09E858F85890F8F878F8586FF04C0B8
:100240008F8580688F8703C08F858F778F878F8595
:1002500080FF0FC08F8586958F878C899D899695A5
:1002600087959D8B8C8B8C899D8990689D8B8C8BC1
:1002700009C08F8586958F878C899D8996958795EE
:100280009D8B8C8B8F819885019698878F838F812A
:1002900098850B9708F48FCF8F8580FF0FC08F85CF
:1002A00086958F878C899D89969587959D8B8C8B5C
:1002B0008C899D8990689D8B8C8B09C08F858695D4
:1002C0008F878C899D89969587959D8B8C8B8F8543
:1002D000853040F18F85853008F44CC08F8580FFD4
:1002E0000FC08F8586958F878C899D899695879578
:1002F0009D8B8C8B8C899D8990689D8B8C8B09C084
:100300008F8586958F878C899D89969587959D8BFE
:100310008C8B89859A8501969A8789878F85853008
:10032000E8F628C08F85843028F58F85843010F555
:100330008C899D8999236CF48C899D89880F991FDC
:100340009D8B8C8B8F85880F8F878F8581608F87A2
:1003500009C08C899D89880F991F9D8B8C8B8F85F7
:10036000880F8F8789859A8501979A8789878F85D6
:100370008430F0F289859A858034910538F08B8538
:100380009C858F6F9F639C878B8728C089859A8502
:100390004F9718F41C861B8621C089859A852B856A
:1003A0003C85982F8827990F822B932B9C878B87CE
:1003B0008F852B853C8540E4849FC0011124822BCE
:1003C000932B9C878B878C899D892B853C85892FD6
:1003D00099278695822B932B9C878B878B859C8571
:1003E00069960FB6F894DEBF0FBECDBFDF91CF91F7
:1003F000089580E388B90E94400068ED78EC88E0B9
:1004000096E40E94490085B915B8FFCFF894FFCF54
:00000001FF
