:100000000C9434000C943E000C943E000C943E0082
:100010000C943E000C943E000C943E000C943E0068
:100020000C943E000C943E000C943E000C943E0058
:100030000C943E000C943E000C943E000C943E0048
:100040000C943E000C943E000C943E000C943E0038
:100050000C943E000C943E000C943E000C943E0028
:100060000C943E000C943E0011241FBECFEFD8E04C
:10007000DEBFCDBF0E945D000C9473000C940000A5
:100080001092B90088E48093B80084E08093BC00AB
:1000900008958093BB0084E88093BC00ECEBF0E013
:1000A00080818823ECF7089584EA8093BC00ECEB10
:1000B000F0E080818823ECF7089580E388B90E94FE
:1000C00040000E94540080EC0E94490080E40E949D
:1000D000490080E80E94490080E00E94490084E9CC
:0A00E0008093BC00FFCFF894FFCF1F
:00000001FF
