S01E00004E6F6E2D4C696E6561725F4F44455B4C6F72656E7A5D2E73726563EA
S11300000C9434000C943E000C943E000C943E007E
S11300100C943E000C943E000C943E000C943E0064
S11300200C943E000C943E000C943E000C943E0054
S11300300C943E000C943E000C943E000C943E0044
S11300400C943E000C943E000C943E000C943E0034
S11300500C943E000C943E000C943E000C943E0024
S11300600C943E000C943E0011241FBECFEFD8E048
S1130070DEBFCDBF0E940D020C941C020C94000044
S11300801092B90088E48093B80084E08093BC00A7
S11300900895CF93DF93CDB7DEB761970FB6F89489
S11300A0DEBF0FBECDBF9F878E87798B688B198289
S11300B01A821C821B821E821D821F821986188648
S11300C01B861A861D861C868E859F85892F86959C
S11300D0898389818F7389838E859F8591709C83A1
S11300E08B838B819C8192609C838B838889998983
S11300F0892F86958A838A818F738A8388899989CF
S113010091709E838D838D819E8192609E838D8369
S113011099818A81891798F489819A81891B8F83AF
S1130120898190E0998788878D819E812F8102C083
S1130130969587952A95E2F79E838D831BC09A81B5
S11301408981891798F48A819981891B8F838A818F
S113015090E0998788878B819C812F8102C0969536
S113016087952A95E2F79C838B8304C0898190E06C
S1130170998788872E853F8588899989822793273F
S1130180992324F18E859F852C853D858827907839
S1130190822B932B9D878C872B813C818D819E8123
S11301A0820F931F9B878A878A859B85811594403C
S11301B008F4FAC08A859B85969587959B878A87DC
S11301C088859985019699878887EEC08889998959
S11301D09923A4F48D819E81809590959E838D832F
S11301E08D819E8101969E838D832B813C818D819F
S11301F09E81820F931F9B878A8713C08B819C816A
S1130200809590959C838B838B819C8101969C83A4
S11302108B832B813C818D819E81820F931F9B87D1
S11302208A878A859B85992384F48A859B85809512
S113023090959B878A878A859B8501969B878A8769
S11302408C859D8590689D878C878A859B85029780
S113025068F48A859B85982F8827990F9B878A87BE
S1130260888599850997998788879EC08A859B8503
S1130270049760F48A859B85982F88279B878A87B3
S1130280888599850897998788878EC08A859B85F4
S1130290089778F48A859B859695982F8827979553
S11302A087959B878A878885998507979987888703
S11302B07BC08A859B85409798F48A859B8500241A
S11302C0969587950794969587950794982F802DF2
S11302D09B878A878885998506979987888764C0CC
S11302E08A859B85809790F48A859B85880F991FC2
S11302F082959295907F9827807F98279B878A87FD
S1130300888599850597998788874EC08A859B85B6
S11303108034910580F48A859B8582959295907F9F
S11303209827807F98279B878A8788859985049753
S11303309987888739C08A859B858038910580F4A0
S11303408A859B85880F991F880F991F880F991F8D
S11303509B878A878885998503979987888724C08E
S11303608A859B858F3F910509F070F48A859B856A
S1130370880F991F880F991F9B878A87888599857D
S113038002979987888710C08A859B85811592403A
S113039058F48A859B85880F991F9B878A8788854F
S11303A099850197998788878885998580349105EF
S11303B048F08FE390E0998788878FEF9FEF9B87C2
S11303C08A8708C0888599854F9720F419861886EE
S11303D01B861A868A859B8591709B878A87888568
S11303E09985982F8827990F9987888748855985F3
S11303F08A859B852C853D85842B952B822B932B7D
S11304009D878C878C859D8561960FB6F894DEBF99
S11304100FBECDBFDF91CF91089580E388B90E94CC
S1130420400068ED78EC88E096E40E94490085B9C4
S10F043015B880E090E00895F894FFCF28
S9030000FC
