S00C000054415F312E73726563F3
S11300000C9434000C9451000C9451000C94510045
S11300100C9451000C9451000C9451000C94510018
S11300200C9451000C9451000C9451000C94510008
S11300300C9451000C9451000C9451000C945100F8
S11300400C9451000C9451000C9451000C945100E8
S11300500C9451000C9453000C9451000C945100D6
S11300600C9451000C94510011241FBECFEFD8E022
S1130070DEBFCDBF11E0A0E0B1E0E8E7F3E002C0ED
S113008005900D92AE3AB107D9F721E0AEEAB1E09E
S113009001C01D92A43BB207E1F70E94D5000C9465
S11300A0BA010C9400001F920F920FB60F92112404
S11300B02F933F934F935F936F937F938F939F936C
S11300C0AF93BF93EF93FF93CF93DF93CDB7DEB797
S11300D02597DEBFCDBF80917900880F8093B3014F
S11300E08091B3014AE0BE016F5F7F4F90E00E94B0
S11300F08501FE01319680E090E02191DC01A2555A
S1130100BE4F2C93019685309105B9F70F900F904F
S11301100F900F900F90DF91CF91FF91EF91BF91CE
S1130120AF919F918F917F916F915F914F913F918B
S11301302F910F900FBE0F901F901895CF93DF93C0
S113014000D0CDB7DEB79C0119828981F901E80F8F
S1130150F11D8081882351F099819F5F9983898162
S1130160F901E80FF11D80818111F6CF1A829A817D
S113017089819817A8F4E0ECF0E046EC50E0908117
S113018095FFFDCF8A81D901A80FB11D8C91DA01A9
S11301908C939A819F5F9A839A818981981778F3C7
S11301A00F900F90DF91CF91089580E284B915B834
S11301B0ECE7F0E01082808180628083808180643B
S11301C08083EAE7F0E080818760808380818062B9
S11301D0808310927B008081806880838081886026
S11301E080838081806480831092C50080E1809345
S11301F0C400E0ECF0E0808182608083E1ECF0E018
S1130200808188608083E2ECF0E080818660808376
S11302102FEF33ED80E3215030408040E1F700C000
S113022000008EE791E00E949E009FEF27EA31E6EE
S1130230915020403040E1F700C0000085E791E094
S11302400E949E008FEF97EA21E681509040204063
S1130250E1F700C0000080EA91E00E949E003FEFB9
S113026087EA91E6315080409040E1F700C00000F9
S113027083E891E00E949E002AEA36EE86E991E046
S11302802150304080409040D9F7000087E691E04B
S11302900E949E0078942FEF39E688E12150304087
S11302A08040E1F700C000008EE391E00E949E00D0
S11302B09FEF29E638E1915020403040E1F700C03B
S11302C000008EE291E00E949E008FEF93ED20E308
S11302D0815090402040E1F700C0000085E091E0AB
S11302E00E949E008EEA91E00E949E0080E091E0D0
S11302F00E949E003AEA82E593E724E03150804070
S113030090402040D9F70000C6CFBB274A3031F4D3
S1130310992322F4BDE2909581959F4F0C9491010D
S1130320BB27FB015527AA27880F991FAA1FA417CB
S113033010F0A41B83955051B9F7A05DAA3308F0BF
S1130340A95DA193009779F7B111B1931192CB01F3
S11303500C94AA01DC01FC01672F71917723E1F76A
S1130360329704C07C916D9370836291AE17BF077E
S10B0370C8F30895F894FFCFCF
S11303780D0A0D0A00474554202F75706461746591
S11303883F6B65793D35344D524C43375A513332BE
S11303985544343854266669656C64313D004154CB
S11303A82B43495053454E443D34350D0A004154BE
S11303B82B43495053544152543D22544350222C08
S11303C8223138342E3130362E3135332E3134390A
S11303D8222C38300D0A0041542B4349504D5558AE
S11303E83D300D0A0041542B474D520D0A0041542B
S11303F80D0A0041542B43574A41503D2257494660
S113040849222C2250415353574F5244220D0A007B
S111041841542B43574D4F44453D330D0A00CC
S9030000FC
