S00C000054415F312E73726563F3
S11300000C9434000C9446000C9446000C94460066
S11300100C9446000C9446000C9446000C94460044
S11300200C9446000C9446000C9446000C94460034
S11300300C9446000C9488000C9446000C944600E2
S11300400C9446000C9446000C9446000C94460014
S11300500C9446000C94AF000C9446000C9446009B
S11300600C9446000C94460011241FBECFEFD8E038
S1130070DEBFCDBF21E0A0E0B1E001C01D92A13000
S1130080B207E1F70E9448000C94C0000C940000F1
S113009080E284B915B8ECE7F0E0108280818062D8
S11300A08083808180648083EAE7F0E080818660D9
S11300B0808380818062808310927B00808180684D
S11300C080838081886080838081806480831092B3
S11300D0C50083E38093C400E1ECF0E08081886094
S11300E08083E2ECF0E08081866080838EEE95E888
S11300F0909385008093840081E080936F00109238
S1130100800084E080938100109282007894FFCF75
S11301101F920F920FB60F9211248F939F93EF9318
S1130120FF9381E086BB95B180E2892785B98EEE85
S113013095E89093850080938400E0ECF0E0808162
S113014085FFFDCF809100018093C600FF91EF9160
S11301509F918F910F900FBE0F901F9018951F9233
S11301600F920FB60F9211248F9380917900880F0C
S1130170809300018F910F900FBE0F901F901895E0
S1070180F894FFCF1D
S9030000FC
