:100000000C9434000C9485000C943E000C943E003B
:100010000C943E000C943E000C943E000C943E0068
:100020000C943E000C943E000C943E000C943E0058
:100030000C943E000C943E000C943E000C943E0048
:100040000C943E000C943E000C943E000C943E0038
:100050000C943E000C943E000C943E000C943E0028
:100060000C943E000C943E0011241FBECFEFD8E04C
:10007000DEBFCDBF0E9440000C94A4000C94000091
:10008000CF93DF9300D0CDB7DEB7569A5A9AE89A4D
:10009000E9E6F0E0808182608083219AECE7F0E07D
:1000A000808180648083EAE7F0E0808187608083DC
:1000B00080818068808380E48AB984B5806C84BD47
:1000C00084B5836084BD85B5856085BD7894A8E7D7
:1000D000B0E02FEF30E0808180648083808184FFF6
:1000E000FDCF8D919C9111979695879596958795C3
:1000F0009A83898389819A81A901481B590B5A8364
:10010000498389819A8187BDE6CF1F920F920FB6EE
:100110000F9211242F938F939F9395B182E089279B
:1001200085B981E08CBB2FEF83E294EF21508040B2
:100130009040E1F700C000009F918F912F910F90A8
:0C0140000FBE0F901F901895F894FFCF91
:00000001FF
